:100000000200B6E5836003E49322A882E622E5833A
:100010006004E4938003A882E6F822E5836004E4A8
:10002000938003A882E6F922E5836004E4938003C9
:10003000A882E6FA22E5836004E4938003A882E6BE
:10004000FB22E5836004E4938003A882E6FC22E5BA
:10005000836004E4938003A882E6FD22E5836004C4
:10006000E4938003A882E6FE22E5836004E49380A3
:1000700003A882E6FF22C006C007AE04AF058E8348
:100080008F82120003A3AE83AF8270F2EFC3950597
:10009000FBEE9504FAEB24FFFBEA34FFFAD007D01D
:1000A0000622E4F5D075812E78207A0EF608DAFC67
:0900B0001202CE0200000200A2BF
:10010000060473766F2073766F2073766F007761C5
:100110006B652075702120002020202020202000E9
:10012000800BD2A1C2A28D80D2A0C2A02280F38077
:10013000488C2C8D2DAC2CAD2D1200768A2A8B2B61
:10014000E4F522F523801AE523252DF582E52235F5
:100150002CF58312004F1201200523E523700205C0
:1001600022C3E523952B852AF063F080E522648085
:1001700095F04002800280CF2280B6800BC2A1C2DF
:10018000A28D80D2A0C2A02280F3800CC2A1C2A204
:10019000758001D2A0C2A02280F28020E4F522F571
:1001A0002380080523E52370020522E52324CEE5FC
:1001B000226480347F5002800280E82280DE0202C6
:1001C000CB8A268B278C288D29AC26AD271200766A
:1001D0008A248B2512018A7D0612017B7C017D1801
:1001E00012012F7DB21201207DB31201207DA612D3
:1001F00001207DB01201207DA01201207D0212019C
:100200007B7D0412017B7D20120120E4F522F52381
:10021000807AC3E52195258524F063F080E520648C
:100220008095F0400280028040E521C39525FDE5E0
:10023000209524FCEDC39523FDEC9522FCEC30E7E2
:10024000028002801DE521C39523FDE5209522FC57
:10025000ED2527F582EC3526F58312004F1201209B
:1002600080057D20120120801BE521C39523FDE53B
:10027000209522FCED2527F582EC3526F58312002A
:100280004F1201200523E52370020522C3E52195C5
:10029000238522F063F080E520648095F050028091
:1002A0000302021212019A0521E52170020520E5E0
:1002B0002124F0E5206480347F500280028005E430
:1002C000F520F52112018A0201D7220201C1801313
:1002D0007A017B067C017D021201BE7C017D0E123B
:0502E000012F2280EB5C
:00000001FF
